{
  "contractName": "HogwartsNFT",
  "abi": [
    {
      "inputs": [],
      "stateMutability": "nonpayable",
      "type": "constructor"
    },
    {
      "anonymous": false,
      "inputs": [
        {
          "indexed": true,
          "internalType": "address",
          "name": "owner",
          "type": "address"
        },
        {
          "indexed": true,
          "internalType": "address",
          "name": "approved",
          "type": "address"
        },
        {
          "indexed": true,
          "internalType": "uint256",
          "name": "tokenId",
          "type": "uint256"
        }
      ],
      "name": "Approval",
      "type": "event"
    },
    {
      "anonymous": false,
      "inputs": [
        {
          "indexed": true,
          "internalType": "address",
          "name": "owner",
          "type": "address"
        },
        {
          "indexed": true,
          "internalType": "address",
          "name": "operator",
          "type": "address"
        },
        {
          "indexed": false,
          "internalType": "bool",
          "name": "approved",
          "type": "bool"
        }
      ],
      "name": "ApprovalForAll",
      "type": "event"
    },
    {
      "anonymous": false,
      "inputs": [
        {
          "indexed": false,
          "internalType": "uint256",
          "name": "_fromTokenId",
          "type": "uint256"
        },
        {
          "indexed": false,
          "internalType": "uint256",
          "name": "_toTokenId",
          "type": "uint256"
        }
      ],
      "name": "BatchMetadataUpdate",
      "type": "event"
    },
    {
      "anonymous": false,
      "inputs": [
        {
          "indexed": false,
          "internalType": "uint256",
          "name": "_tokenId",
          "type": "uint256"
        }
      ],
      "name": "MetadataUpdate",
      "type": "event"
    },
    {
      "anonymous": false,
      "inputs": [
        {
          "indexed": false,
          "internalType": "uint256",
          "name": "house",
          "type": "uint256"
        },
        {
          "indexed": false,
          "internalType": "address",
          "name": "minter",
          "type": "address"
        }
      ],
      "name": "NftMinted",
      "type": "event"
    },
    {
      "anonymous": false,
      "inputs": [
        {
          "indexed": true,
          "internalType": "address",
          "name": "previousOwner",
          "type": "address"
        },
        {
          "indexed": true,
          "internalType": "address",
          "name": "newOwner",
          "type": "address"
        }
      ],
      "name": "OwnershipTransferred",
      "type": "event"
    },
    {
      "anonymous": false,
      "inputs": [
        {
          "indexed": true,
          "internalType": "address",
          "name": "from",
          "type": "address"
        },
        {
          "indexed": true,
          "internalType": "address",
          "name": "to",
          "type": "address"
        },
        {
          "indexed": true,
          "internalType": "uint256",
          "name": "tokenId",
          "type": "uint256"
        }
      ],
      "name": "Transfer",
      "type": "event"
    },
    {
      "inputs": [
        {
          "internalType": "address",
          "name": "to",
          "type": "address"
        },
        {
          "internalType": "uint256",
          "name": "tokenId",
          "type": "uint256"
        }
      ],
      "name": "approve",
      "outputs": [],
      "stateMutability": "nonpayable",
      "type": "function"
    },
    {
      "inputs": [
        {
          "internalType": "address",
          "name": "owner",
          "type": "address"
        }
      ],
      "name": "balanceOf",
      "outputs": [
        {
          "internalType": "uint256",
          "name": "",
          "type": "uint256"
        }
      ],
      "stateMutability": "view",
      "type": "function",
      "constant": true
    },
    {
      "inputs": [
        {
          "internalType": "uint256",
          "name": "tokenId",
          "type": "uint256"
        }
      ],
      "name": "getApproved",
      "outputs": [
        {
          "internalType": "address",
          "name": "",
          "type": "address"
        }
      ],
      "stateMutability": "view",
      "type": "function",
      "constant": true
    },
    {
      "inputs": [
        {
          "internalType": "address",
          "name": "owner",
          "type": "address"
        },
        {
          "internalType": "address",
          "name": "operator",
          "type": "address"
        }
      ],
      "name": "isApprovedForAll",
      "outputs": [
        {
          "internalType": "bool",
          "name": "",
          "type": "bool"
        }
      ],
      "stateMutability": "view",
      "type": "function",
      "constant": true
    },
    {
      "inputs": [],
      "name": "name",
      "outputs": [
        {
          "internalType": "string",
          "name": "",
          "type": "string"
        }
      ],
      "stateMutability": "view",
      "type": "function",
      "constant": true
    },
    {
      "inputs": [],
      "name": "owner",
      "outputs": [
        {
          "internalType": "address",
          "name": "",
          "type": "address"
        }
      ],
      "stateMutability": "view",
      "type": "function",
      "constant": true
    },
    {
      "inputs": [
        {
          "internalType": "uint256",
          "name": "tokenId",
          "type": "uint256"
        }
      ],
      "name": "ownerOf",
      "outputs": [
        {
          "internalType": "address",
          "name": "",
          "type": "address"
        }
      ],
      "stateMutability": "view",
      "type": "function",
      "constant": true
    },
    {
      "inputs": [],
      "name": "renounceOwnership",
      "outputs": [],
      "stateMutability": "nonpayable",
      "type": "function"
    },
    {
      "inputs": [
        {
          "internalType": "address",
          "name": "",
          "type": "address"
        }
      ],
      "name": "s_addressToHouse",
      "outputs": [
        {
          "internalType": "uint256",
          "name": "",
          "type": "uint256"
        }
      ],
      "stateMutability": "view",
      "type": "function",
      "constant": true
    },
    {
      "inputs": [
        {
          "internalType": "uint256",
          "name": "",
          "type": "uint256"
        }
      ],
      "name": "s_requestIdToSender",
      "outputs": [
        {
          "internalType": "address",
          "name": "",
          "type": "address"
        }
      ],
      "stateMutability": "view",
      "type": "function",
      "constant": true
    },
    {
      "inputs": [
        {
          "internalType": "address",
          "name": "from",
          "type": "address"
        },
        {
          "internalType": "address",
          "name": "to",
          "type": "address"
        },
        {
          "internalType": "uint256",
          "name": "tokenId",
          "type": "uint256"
        }
      ],
      "name": "safeTransferFrom",
      "outputs": [],
      "stateMutability": "nonpayable",
      "type": "function"
    },
    {
      "inputs": [
        {
          "internalType": "address",
          "name": "from",
          "type": "address"
        },
        {
          "internalType": "address",
          "name": "to",
          "type": "address"
        },
        {
          "internalType": "uint256",
          "name": "tokenId",
          "type": "uint256"
        },
        {
          "internalType": "bytes",
          "name": "data",
          "type": "bytes"
        }
      ],
      "name": "safeTransferFrom",
      "outputs": [],
      "stateMutability": "nonpayable",
      "type": "function"
    },
    {
      "inputs": [
        {
          "internalType": "address",
          "name": "operator",
          "type": "address"
        },
        {
          "internalType": "bool",
          "name": "approved",
          "type": "bool"
        }
      ],
      "name": "setApprovalForAll",
      "outputs": [],
      "stateMutability": "nonpayable",
      "type": "function"
    },
    {
      "inputs": [
        {
          "internalType": "bytes4",
          "name": "interfaceId",
          "type": "bytes4"
        }
      ],
      "name": "supportsInterface",
      "outputs": [
        {
          "internalType": "bool",
          "name": "",
          "type": "bool"
        }
      ],
      "stateMutability": "view",
      "type": "function",
      "constant": true
    },
    {
      "inputs": [],
      "name": "symbol",
      "outputs": [
        {
          "internalType": "string",
          "name": "",
          "type": "string"
        }
      ],
      "stateMutability": "view",
      "type": "function",
      "constant": true
    },
    {
      "inputs": [
        {
          "internalType": "uint256",
          "name": "tokenId",
          "type": "uint256"
        }
      ],
      "name": "tokenURI",
      "outputs": [
        {
          "internalType": "string",
          "name": "",
          "type": "string"
        }
      ],
      "stateMutability": "view",
      "type": "function",
      "constant": true
    },
    {
      "inputs": [
        {
          "internalType": "address",
          "name": "from",
          "type": "address"
        },
        {
          "internalType": "address",
          "name": "to",
          "type": "address"
        },
        {
          "internalType": "uint256",
          "name": "tokenId",
          "type": "uint256"
        }
      ],
      "name": "transferFrom",
      "outputs": [],
      "stateMutability": "nonpayable",
      "type": "function"
    },
    {
      "inputs": [
        {
          "internalType": "address",
          "name": "newOwner",
          "type": "address"
        }
      ],
      "name": "transferOwnership",
      "outputs": [],
      "stateMutability": "nonpayable",
      "type": "function"
    },
    {
      "inputs": [
        {
          "internalType": "address",
          "name": "_user",
          "type": "address"
        }
      ],
      "name": "hasMintedNFT",
      "outputs": [
        {
          "internalType": "bool",
          "name": "",
          "type": "bool"
        }
      ],
      "stateMutability": "view",
      "type": "function",
      "constant": true
    },
    {
      "inputs": [
        {
          "internalType": "address",
          "name": "_user",
          "type": "address"
        }
      ],
      "name": "getHouseIndex",
      "outputs": [
        {
          "internalType": "uint256",
          "name": "",
          "type": "uint256"
        }
      ],
      "stateMutability": "view",
      "type": "function",
      "constant": true
    },
    {
      "inputs": [
        {
          "internalType": "address",
          "name": "recipient",
          "type": "address"
        },
        {
          "internalType": "uint256",
          "name": "house",
          "type": "uint256"
        }
      ],
      "name": "mintNFT",
      "outputs": [],
      "stateMutability": "nonpayable",
      "type": "function"
    }
  ],
  "bytecode": "0x60806040526040518060800160405280604051806080016040528060458152602001620034826045913981526020016040518060800160405280604581526020016200343d604591398152602001604051806080016040528060448152602001620033f9604491398152602001604051806080016040528060448152602001620034c760449139815250600b9060046200009b92919062000246565b50348015620000a957600080fd5b506040518060400160405280600c81526020017f486f677761727473204e465400000000000000000000000000000000000000008152506040518060400160405280600281526020017f485000000000000000000000000000000000000000000000000000000000000081525081600090805190602001906200012e929190620002ad565b50806001908051906020019062000147929190620002ad565b5050506200016a6200015e6200017860201b60201c565b6200018060201b60201c565b6000600a8190555062000430565b600033905090565b6000600760009054906101000a900473ffffffffffffffffffffffffffffffffffffffff16905081600760006101000a81548173ffffffffffffffffffffffffffffffffffffffff021916908373ffffffffffffffffffffffffffffffffffffffff1602179055508173ffffffffffffffffffffffffffffffffffffffff168173ffffffffffffffffffffffffffffffffffffffff167f8be0079c531659141344cd1fd0a4f28419497f9722a3daafe3b4186f6b6457e060405160405180910390a35050565b8280548282559060005260206000209081019282156200029a579160200282015b828111156200029957825182908051906020019062000288929190620002ad565b509160200191906001019062000267565b5b509050620002a991906200033e565b5090565b828054620002bb90620003fa565b90600052602060002090601f016020900481019282620002df57600085556200032b565b82601f10620002fa57805160ff19168380011785556200032b565b828001600101855582156200032b579182015b828111156200032a5782518255916020019190600101906200030d565b5b5090506200033a919062000366565b5090565b5b8082111562000362576000818162000358919062000385565b506001016200033f565b5090565b5b808211156200038157600081600090555060010162000367565b5090565b5080546200039390620003fa565b6000825580601f10620003a75750620003c8565b601f016020900490600052602060002090810190620003c7919062000366565b5b50565b7f4e487b7100000000000000000000000000000000000000000000000000000000600052602260045260246000fd5b600060028204905060018216806200041357607f821691505b602082108114156200042a5762000429620003cb565b5b50919050565b612fb980620004406000396000f3fe608060405234801561001057600080fd5b50600436106101375760003560e01c8063715018a6116100b8578063b88d4fde1161007c578063b88d4fde1461034c578063c87b56dd14610368578063cd65423214610398578063e28cb25a146103c8578063e985e9c5146103f8578063f2fde38b1461042857610137565b8063715018a6146102ba5780638da5cb5b146102c457806395d89b41146102e2578063a22cb46514610300578063a36f573b1461031c57610137565b80633c168eab116100ff5780633c168eab146101f257806342842e0e1461020e5780634a4b36c21461022a5780636352211e1461025a57806370a082311461028a57610137565b806301ffc9a71461013c57806306fdde031461016c578063081812fc1461018a578063095ea7b3146101ba57806323b872dd146101d6575b600080fd5b6101566004803603810190610151919061203e565b610444565b6040516101639190612086565b60405180910390f35b6101746104a5565b604051610181919061213a565b60405180910390f35b6101a4600480360381019061019f9190612192565b610537565b6040516101b19190612200565b60405180910390f35b6101d460048036038101906101cf9190612247565b61057d565b005b6101f060048036038101906101eb9190612287565b610695565b005b61020c60048036038101906102079190612247565b6106f5565b005b61022860048036038101906102239190612287565b61085a565b005b610244600480360381019061023f91906122da565b61087a565b6040516102519190612316565b60405180910390f35b610274600480360381019061026f9190612192565b6108c3565b6040516102819190612200565b60405180910390f35b6102a4600480360381019061029f91906122da565b61094a565b6040516102b19190612316565b60405180910390f35b6102c2610a02565b005b6102cc610a16565b6040516102d99190612200565b60405180910390f35b6102ea610a40565b6040516102f7919061213a565b60405180910390f35b61031a6004803603810190610315919061235d565b610ad2565b005b61033660048036038101906103319190612192565b610ae8565b6040516103439190612200565b60405180910390f35b610366600480360381019061036191906124d2565b610b1b565b005b610382600480360381019061037d9190612192565b610b7d565b60405161038f919061213a565b60405180910390f35b6103b260048036038101906103ad91906122da565b610c90565b6040516103bf9190612316565b60405180910390f35b6103e260048036038101906103dd91906122da565b610ca8565b6040516103ef9190612086565b60405180910390f35b610412600480360381019061040d9190612555565b610cf3565b60405161041f9190612086565b60405180910390f35b610442600480360381019061043d91906122da565b610d87565b005b6000634906490660e01b7bffffffffffffffffffffffffffffffffffffffffffffffffffffffff1916827bffffffffffffffffffffffffffffffffffffffffffffffffffffffff1916148061049e575061049d82610e0b565b5b9050919050565b6060600080546104b4906125c4565b80601f01602080910402602001604051908101604052809291908181526020018280546104e0906125c4565b801561052d5780601f106105025761010080835404028352916020019161052d565b820191906000526020600020905b81548152906001019060200180831161051057829003601f168201915b5050505050905090565b600061054282610eed565b6004600083815260200190815260200160002060009054906101000a900473ffffffffffffffffffffffffffffffffffffffff169050919050565b6000610588826108c3565b90508073ffffffffffffffffffffffffffffffffffffffff168373ffffffffffffffffffffffffffffffffffffffff1614156105f9576040517f08c379a00000000000000000000000000000000000000000000000000000000081526004016105f090612668565b60405180910390fd5b8073ffffffffffffffffffffffffffffffffffffffff16610618610f38565b73ffffffffffffffffffffffffffffffffffffffff161480610647575061064681610641610f38565b610cf3565b5b610686576040517f08c379a000000000000000000000000000000000000000000000000000000000815260040161067d906126fa565b60405180910390fd5b6106908383610f40565b505050565b6106a66106a0610f38565b82610ff9565b6106e5576040517f08c379a00000000000000000000000000000000000000000000000000000000081526004016106dc9061278c565b60405180910390fd5b6106f083838361108e565b505050565b6106fd611388565b6000600a54905061070e8382611406565b6107be81600b8481548110610726576107256127ac565b5b90600052602060002001805461073b906125c4565b80601f0160208091040260200160405190810160405280929190818152602001828054610767906125c4565b80156107b45780601f10610789576101008083540402835291602001916107b4565b820191906000526020600020905b81548152906001019060200180831161079757829003601f168201915b5050505050611424565b81600960008573ffffffffffffffffffffffffffffffffffffffff1673ffffffffffffffffffffffffffffffffffffffff168152602001908152602001600020819055506001600a6000828254610815919061280a565b925050819055507f769eff512f395b679667e0062a0e31dad5d22dbc7e6b87f16c3de7e85e663460828460405161084d929190612860565b60405180910390a1505050565b61087583838360405180602001604052806000815250610b1b565b505050565b6000600960008373ffffffffffffffffffffffffffffffffffffffff1673ffffffffffffffffffffffffffffffffffffffff168152602001908152602001600020549050919050565b6000806108cf836114cf565b9050600073ffffffffffffffffffffffffffffffffffffffff168173ffffffffffffffffffffffffffffffffffffffff161415610941576040517f08c379a0000000000000000000000000000000000000000000000000000000008152600401610938906128d5565b60405180910390fd5b80915050919050565b60008073ffffffffffffffffffffffffffffffffffffffff168273ffffffffffffffffffffffffffffffffffffffff1614156109bb576040517f08c379a00000000000000000000000000000000000000000000000000000000081526004016109b290612967565b60405180910390fd5b600360008373ffffffffffffffffffffffffffffffffffffffff1673ffffffffffffffffffffffffffffffffffffffff168152602001908152602001600020549050919050565b610a0a611388565b610a14600061150c565b565b6000600760009054906101000a900473ffffffffffffffffffffffffffffffffffffffff16905090565b606060018054610a4f906125c4565b80601f0160208091040260200160405190810160405280929190818152602001828054610a7b906125c4565b8015610ac85780601f10610a9d57610100808354040283529160200191610ac8565b820191906000526020600020905b815481529060010190602001808311610aab57829003601f168201915b5050505050905090565b610ae4610add610f38565b83836115d2565b5050565b60086020528060005260406000206000915054906101000a900473ffffffffffffffffffffffffffffffffffffffff1681565b610b2c610b26610f38565b83610ff9565b610b6b576040517f08c379a0000000000000000000000000000000000000000000000000000000008152600401610b629061278c565b60405180910390fd5b610b778484848461173f565b50505050565b6060610b8882610eed565b6000600660008481526020019081526020016000208054610ba8906125c4565b80601f0160208091040260200160405190810160405280929190818152602001828054610bd4906125c4565b8015610c215780601f10610bf657610100808354040283529160200191610c21565b820191906000526020600020905b815481529060010190602001808311610c0457829003601f168201915b505050505090506000610c3261179b565b9050600081511415610c48578192505050610c8b565b600082511115610c7d578082604051602001610c659291906129c3565b60405160208183030381529060405292505050610c8b565b610c86846117b2565b925050505b919050565b60096020528060005260406000206000915090505481565b600080600960008473ffffffffffffffffffffffffffffffffffffffff1673ffffffffffffffffffffffffffffffffffffffff16815260200190815260200160002054119050919050565b6000600560008473ffffffffffffffffffffffffffffffffffffffff1673ffffffffffffffffffffffffffffffffffffffff16815260200190815260200160002060008373ffffffffffffffffffffffffffffffffffffffff1673ffffffffffffffffffffffffffffffffffffffff16815260200190815260200160002060009054906101000a900460ff16905092915050565b610d8f611388565b600073ffffffffffffffffffffffffffffffffffffffff168173ffffffffffffffffffffffffffffffffffffffff161415610dff576040517f08c379a0000000000000000000000000000000000000000000000000000000008152600401610df690612a59565b60405180910390fd5b610e088161150c565b50565b60007f80ac58cd000000000000000000000000000000000000000000000000000000007bffffffffffffffffffffffffffffffffffffffffffffffffffffffff1916827bffffffffffffffffffffffffffffffffffffffffffffffffffffffff19161480610ed657507f5b5e139f000000000000000000000000000000000000000000000000000000007bffffffffffffffffffffffffffffffffffffffffffffffffffffffff1916827bffffffffffffffffffffffffffffffffffffffffffffffffffffffff1916145b80610ee65750610ee58261181a565b5b9050919050565b610ef681611884565b610f35576040517f08c379a0000000000000000000000000000000000000000000000000000000008152600401610f2c906128d5565b60405180910390fd5b50565b600033905090565b816004600083815260200190815260200160002060006101000a81548173ffffffffffffffffffffffffffffffffffffffff021916908373ffffffffffffffffffffffffffffffffffffffff160217905550808273ffffffffffffffffffffffffffffffffffffffff16610fb3836108c3565b73ffffffffffffffffffffffffffffffffffffffff167f8c5be1e5ebec7d5bd14f71427d1e84f3dd0314c0f7b2291e5b200ac8c7c3b92560405160405180910390a45050565b600080611005836108c3565b90508073ffffffffffffffffffffffffffffffffffffffff168473ffffffffffffffffffffffffffffffffffffffff16148061104757506110468185610cf3565b5b8061108557508373ffffffffffffffffffffffffffffffffffffffff1661106d84610537565b73ffffffffffffffffffffffffffffffffffffffff16145b91505092915050565b8273ffffffffffffffffffffffffffffffffffffffff166110ae826108c3565b73ffffffffffffffffffffffffffffffffffffffff1614611104576040517f08c379a00000000000000000000000000000000000000000000000000000000081526004016110fb90612aeb565b60405180910390fd5b600073ffffffffffffffffffffffffffffffffffffffff168273ffffffffffffffffffffffffffffffffffffffff161415611174576040517f08c379a000000000000000000000000000000000000000000000000000000000815260040161116b90612b7d565b60405180910390fd5b61118183838360016118c5565b8273ffffffffffffffffffffffffffffffffffffffff166111a1826108c3565b73ffffffffffffffffffffffffffffffffffffffff16146111f7576040517f08c379a00000000000000000000000000000000000000000000000000000000081526004016111ee90612aeb565b60405180910390fd5b6004600082815260200190815260200160002060006101000a81549073ffffffffffffffffffffffffffffffffffffffff02191690556001600360008573ffffffffffffffffffffffffffffffffffffffff1673ffffffffffffffffffffffffffffffffffffffff168152602001908152602001600020600082825403925050819055506001600360008473ffffffffffffffffffffffffffffffffffffffff1673ffffffffffffffffffffffffffffffffffffffff16815260200190815260200160002060008282540192505081905550816002600083815260200190815260200160002060006101000a81548173ffffffffffffffffffffffffffffffffffffffff021916908373ffffffffffffffffffffffffffffffffffffffff160217905550808273ffffffffffffffffffffffffffffffffffffffff168473ffffffffffffffffffffffffffffffffffffffff167fddf252ad1be2c89b69c2b068fc378daa952ba7f163c4a11628f55a4df523b3ef60405160405180910390a461138383838360016118cb565b505050565b611390610f38565b73ffffffffffffffffffffffffffffffffffffffff166113ae610a16565b73ffffffffffffffffffffffffffffffffffffffff1614611404576040517f08c379a00000000000000000000000000000000000000000000000000000000081526004016113fb90612be9565b60405180910390fd5b565b6114208282604051806020016040528060008152506118d1565b5050565b61142d82611884565b61146c576040517f08c379a000000000000000000000000000000000000000000000000000000000815260040161146390612c7b565b60405180910390fd5b80600660008481526020019081526020016000209080519060200190611493929190611f2f565b507ff8e1a15aba9398e019f0b49df1a4fde98ee17ae345cb5f6b5e2c27f5033e8ce7826040516114c39190612316565b60405180910390a15050565b60006002600083815260200190815260200160002060009054906101000a900473ffffffffffffffffffffffffffffffffffffffff169050919050565b6000600760009054906101000a900473ffffffffffffffffffffffffffffffffffffffff16905081600760006101000a81548173ffffffffffffffffffffffffffffffffffffffff021916908373ffffffffffffffffffffffffffffffffffffffff1602179055508173ffffffffffffffffffffffffffffffffffffffff168173ffffffffffffffffffffffffffffffffffffffff167f8be0079c531659141344cd1fd0a4f28419497f9722a3daafe3b4186f6b6457e060405160405180910390a35050565b8173ffffffffffffffffffffffffffffffffffffffff168373ffffffffffffffffffffffffffffffffffffffff161415611641576040517f08c379a000000000000000000000000000000000000000000000000000000000815260040161163890612ce7565b60405180910390fd5b80600560008573ffffffffffffffffffffffffffffffffffffffff1673ffffffffffffffffffffffffffffffffffffffff16815260200190815260200160002060008473ffffffffffffffffffffffffffffffffffffffff1673ffffffffffffffffffffffffffffffffffffffff16815260200190815260200160002060006101000a81548160ff0219169083151502179055508173ffffffffffffffffffffffffffffffffffffffff168373ffffffffffffffffffffffffffffffffffffffff167f17307eab39ab6107e8899845ad3d59bd9653f200f220920489ca2b5937696c31836040516117329190612086565b60405180910390a3505050565b61174a84848461108e565b6117568484848461192c565b611795576040517f08c379a000000000000000000000000000000000000000000000000000000000815260040161178c90612d79565b60405180910390fd5b50505050565b606060405180602001604052806000815250905090565b60606117bd82610eed565b60006117c761179b565b905060008151116117e75760405180602001604052806000815250611812565b806117f184611ac3565b6040516020016118029291906129c3565b6040516020818303038152906040525b915050919050565b60007f01ffc9a7000000000000000000000000000000000000000000000000000000007bffffffffffffffffffffffffffffffffffffffffffffffffffffffff1916827bffffffffffffffffffffffffffffffffffffffffffffffffffffffff1916149050919050565b60008073ffffffffffffffffffffffffffffffffffffffff166118a6836114cf565b73ffffffffffffffffffffffffffffffffffffffff1614159050919050565b50505050565b50505050565b6118db8383611b9b565b6118e8600084848461192c565b611927576040517f08c379a000000000000000000000000000000000000000000000000000000000815260040161191e90612d79565b60405180910390fd5b505050565b600061194d8473ffffffffffffffffffffffffffffffffffffffff16611db9565b15611ab6578373ffffffffffffffffffffffffffffffffffffffff1663150b7a02611976610f38565b8786866040518563ffffffff1660e01b81526004016119989493929190612dee565b602060405180830381600087803b1580156119b257600080fd5b505af19250505080156119e357506040513d601f19601f820116820180604052508101906119e09190612e4f565b60015b611a66573d8060008114611a13576040519150601f19603f3d011682016040523d82523d6000602084013e611a18565b606091505b50600081511415611a5e576040517f08c379a0000000000000000000000000000000000000000000000000000000008152600401611a5590612d79565b60405180910390fd5b805181602001fd5b63150b7a0260e01b7bffffffffffffffffffffffffffffffffffffffffffffffffffffffff1916817bffffffffffffffffffffffffffffffffffffffffffffffffffffffff191614915050611abb565b600190505b949350505050565b606060006001611ad284611ddc565b01905060008167ffffffffffffffff811115611af157611af06123a7565b5b6040519080825280601f01601f191660200182016040528015611b235781602001600182028036833780820191505090505b509050600082602001820190505b600115611b90578080600190039150507f3031323334353637383961626364656600000000000000000000000000000000600a86061a8153600a8581611b7a57611b79612e7c565b5b0494506000851415611b8b57611b90565b611b31565b819350505050919050565b600073ffffffffffffffffffffffffffffffffffffffff168273ffffffffffffffffffffffffffffffffffffffff161415611c0b576040517f08c379a0000000000000000000000000000000000000000000000000000000008152600401611c0290612ef7565b60405180910390fd5b611c1481611884565b15611c54576040517f08c379a0000000000000000000000000000000000000000000000000000000008152600401611c4b90612f63565b60405180910390fd5b611c626000838360016118c5565b611c6b81611884565b15611cab576040517f08c379a0000000000000000000000000000000000000000000000000000000008152600401611ca290612f63565b60405180910390fd5b6001600360008473ffffffffffffffffffffffffffffffffffffffff1673ffffffffffffffffffffffffffffffffffffffff16815260200190815260200160002060008282540192505081905550816002600083815260200190815260200160002060006101000a81548173ffffffffffffffffffffffffffffffffffffffff021916908373ffffffffffffffffffffffffffffffffffffffff160217905550808273ffffffffffffffffffffffffffffffffffffffff16600073ffffffffffffffffffffffffffffffffffffffff167fddf252ad1be2c89b69c2b068fc378daa952ba7f163c4a11628f55a4df523b3ef60405160405180910390a4611db56000838360016118cb565b5050565b6000808273ffffffffffffffffffffffffffffffffffffffff163b119050919050565b600080600090507a184f03e93ff9f4daa797ed6e38ed64bf6a1f0100000000000000008310611e3a577a184f03e93ff9f4daa797ed6e38ed64bf6a1f0100000000000000008381611e3057611e2f612e7c565b5b0492506040810190505b6d04ee2d6d415b85acef81000000008310611e77576d04ee2d6d415b85acef81000000008381611e6d57611e6c612e7c565b5b0492506020810190505b662386f26fc100008310611ea657662386f26fc100008381611e9c57611e9b612e7c565b5b0492506010810190505b6305f5e1008310611ecf576305f5e1008381611ec557611ec4612e7c565b5b0492506008810190505b6127108310611ef4576127108381611eea57611ee9612e7c565b5b0492506004810190505b60648310611f175760648381611f0d57611f0c612e7c565b5b0492506002810190505b600a8310611f26576001810190505b80915050919050565b828054611f3b906125c4565b90600052602060002090601f016020900481019282611f5d5760008555611fa4565b82601f10611f7657805160ff1916838001178555611fa4565b82800160010185558215611fa4579182015b82811115611fa3578251825591602001919060010190611f88565b5b509050611fb19190611fb5565b5090565b5b80821115611fce576000816000905550600101611fb6565b5090565b6000604051905090565b600080fd5b600080fd5b60007fffffffff0000000000000000000000000000000000000000000000000000000082169050919050565b61201b81611fe6565b811461202657600080fd5b50565b60008135905061203881612012565b92915050565b60006020828403121561205457612053611fdc565b5b600061206284828501612029565b91505092915050565b60008115159050919050565b6120808161206b565b82525050565b600060208201905061209b6000830184612077565b92915050565b600081519050919050565b600082825260208201905092915050565b60005b838110156120db5780820151818401526020810190506120c0565b838111156120ea576000848401525b50505050565b6000601f19601f8301169050919050565b600061210c826120a1565b61211681856120ac565b93506121268185602086016120bd565b61212f816120f0565b840191505092915050565b600060208201905081810360008301526121548184612101565b905092915050565b6000819050919050565b61216f8161215c565b811461217a57600080fd5b50565b60008135905061218c81612166565b92915050565b6000602082840312156121a8576121a7611fdc565b5b60006121b68482850161217d565b91505092915050565b600073ffffffffffffffffffffffffffffffffffffffff82169050919050565b60006121ea826121bf565b9050919050565b6121fa816121df565b82525050565b600060208201905061221560008301846121f1565b92915050565b612224816121df565b811461222f57600080fd5b50565b6000813590506122418161221b565b92915050565b6000806040838503121561225e5761225d611fdc565b5b600061226c85828601612232565b925050602061227d8582860161217d565b9150509250929050565b6000806000606084860312156122a05761229f611fdc565b5b60006122ae86828701612232565b93505060206122bf86828701612232565b92505060406122d08682870161217d565b9150509250925092565b6000602082840312156122f0576122ef611fdc565b5b60006122fe84828501612232565b91505092915050565b6123108161215c565b82525050565b600060208201905061232b6000830184612307565b92915050565b61233a8161206b565b811461234557600080fd5b50565b60008135905061235781612331565b92915050565b6000806040838503121561237457612373611fdc565b5b600061238285828601612232565b925050602061239385828601612348565b9150509250929050565b600080fd5b600080fd5b7f4e487b7100000000000000000000000000000000000000000000000000000000600052604160045260246000fd5b6123df826120f0565b810181811067ffffffffffffffff821117156123fe576123fd6123a7565b5b80604052505050565b6000612411611fd2565b905061241d82826123d6565b919050565b600067ffffffffffffffff82111561243d5761243c6123a7565b5b612446826120f0565b9050602081019050919050565b82818337600083830152505050565b600061247561247084612422565b612407565b905082815260208101848484011115612491576124906123a2565b5b61249c848285612453565b509392505050565b600082601f8301126124b9576124b861239d565b5b81356124c9848260208601612462565b91505092915050565b600080600080608085870312156124ec576124eb611fdc565b5b60006124fa87828801612232565b945050602061250b87828801612232565b935050604061251c8782880161217d565b925050606085013567ffffffffffffffff81111561253d5761253c611fe1565b5b612549878288016124a4565b91505092959194509250565b6000806040838503121561256c5761256b611fdc565b5b600061257a85828601612232565b925050602061258b85828601612232565b9150509250929050565b7f4e487b7100000000000000000000000000000000000000000000000000000000600052602260045260246000fd5b600060028204905060018216806125dc57607f821691505b602082108114156125f0576125ef612595565b5b50919050565b7f4552433732313a20617070726f76616c20746f2063757272656e74206f776e6560008201527f7200000000000000000000000000000000000000000000000000000000000000602082015250565b60006126526021836120ac565b915061265d826125f6565b604082019050919050565b6000602082019050818103600083015261268181612645565b9050919050565b7f4552433732313a20617070726f76652063616c6c6572206973206e6f7420746f60008201527f6b656e206f776e6572206f7220617070726f76656420666f7220616c6c000000602082015250565b60006126e4603d836120ac565b91506126ef82612688565b604082019050919050565b60006020820190508181036000830152612713816126d7565b9050919050565b7f4552433732313a2063616c6c6572206973206e6f7420746f6b656e206f776e6560008201527f72206f7220617070726f76656400000000000000000000000000000000000000602082015250565b6000612776602d836120ac565b91506127818261271a565b604082019050919050565b600060208201905081810360008301526127a581612769565b9050919050565b7f4e487b7100000000000000000000000000000000000000000000000000000000600052603260045260246000fd5b7f4e487b7100000000000000000000000000000000000000000000000000000000600052601160045260246000fd5b60006128158261215c565b91506128208361215c565b9250827fffffffffffffffffffffffffffffffffffffffffffffffffffffffffffffffff03821115612855576128546127db565b5b828201905092915050565b60006040820190506128756000830185612307565b61288260208301846121f1565b9392505050565b7f4552433732313a20696e76616c696420746f6b656e2049440000000000000000600082015250565b60006128bf6018836120ac565b91506128ca82612889565b602082019050919050565b600060208201905081810360008301526128ee816128b2565b9050919050565b7f4552433732313a2061646472657373207a65726f206973206e6f74206120766160008201527f6c6964206f776e65720000000000000000000000000000000000000000000000602082015250565b60006129516029836120ac565b915061295c826128f5565b604082019050919050565b6000602082019050818103600083015261298081612944565b9050919050565b600081905092915050565b600061299d826120a1565b6129a78185612987565b93506129b78185602086016120bd565b80840191505092915050565b60006129cf8285612992565b91506129db8284612992565b91508190509392505050565b7f4f776e61626c653a206e6577206f776e657220697320746865207a65726f206160008201527f6464726573730000000000000000000000000000000000000000000000000000602082015250565b6000612a436026836120ac565b9150612a4e826129e7565b604082019050919050565b60006020820190508181036000830152612a7281612a36565b9050919050565b7f4552433732313a207472616e736665722066726f6d20696e636f72726563742060008201527f6f776e6572000000000000000000000000000000000000000000000000000000602082015250565b6000612ad56025836120ac565b9150612ae082612a79565b604082019050919050565b60006020820190508181036000830152612b0481612ac8565b9050919050565b7f4552433732313a207472616e7366657220746f20746865207a65726f2061646460008201527f7265737300000000000000000000000000000000000000000000000000000000602082015250565b6000612b676024836120ac565b9150612b7282612b0b565b604082019050919050565b60006020820190508181036000830152612b9681612b5a565b9050919050565b7f4f776e61626c653a2063616c6c6572206973206e6f7420746865206f776e6572600082015250565b6000612bd36020836120ac565b9150612bde82612b9d565b602082019050919050565b60006020820190508181036000830152612c0281612bc6565b9050919050565b7f45524337323155524953746f726167653a2055524920736574206f66206e6f6e60008201527f6578697374656e7420746f6b656e000000000000000000000000000000000000602082015250565b6000612c65602e836120ac565b9150612c7082612c09565b604082019050919050565b60006020820190508181036000830152612c9481612c58565b9050919050565b7f4552433732313a20617070726f766520746f2063616c6c657200000000000000600082015250565b6000612cd16019836120ac565b9150612cdc82612c9b565b602082019050919050565b60006020820190508181036000830152612d0081612cc4565b9050919050565b7f4552433732313a207472616e7366657220746f206e6f6e20455243373231526560008201527f63656976657220696d706c656d656e7465720000000000000000000000000000602082015250565b6000612d636032836120ac565b9150612d6e82612d07565b604082019050919050565b60006020820190508181036000830152612d9281612d56565b9050919050565b600081519050919050565b600082825260208201905092915050565b6000612dc082612d99565b612dca8185612da4565b9350612dda8185602086016120bd565b612de3816120f0565b840191505092915050565b6000608082019050612e0360008301876121f1565b612e1060208301866121f1565b612e1d6040830185612307565b8181036060830152612e2f8184612db5565b905095945050505050565b600081519050612e4981612012565b92915050565b600060208284031215612e6557612e64611fdc565b5b6000612e7384828501612e3a565b91505092915050565b7f4e487b7100000000000000000000000000000000000000000000000000000000600052601260045260246000fd5b7f4552433732313a206d696e7420746f20746865207a65726f2061646472657373600082015250565b6000612ee16020836120ac565b9150612eec82612eab565b602082019050919050565b60006020820190508181036000830152612f1081612ed4565b9050919050565b7f4552433732313a20746f6b656e20616c7265616479206d696e74656400000000600082015250565b6000612f4d601c836120ac565b9150612f5882612f17565b602082019050919050565b60006020820190508181036000830152612f7c81612f40565b905091905056fea2646970667358221220445e19073024e24a8772bfd41d3380ed3acf88ec921a36e8f8e38a471846efa464736f6c63430008080033697066733a2f2f516d586a613251424b734e5739716e77396b4b66636d3235724a546f6d7741564a557258656b59464a6e567762672f526176656e636c61772e6a736f6e697066733a2f2f516d586a613251424b734e5739716e77396b4b66636d3235724a546f6d7741564a557258656b59464a6e567762672f487566666c65707566662e6a736f6e697066733a2f2f516d586a613251424b734e5739716e77396b4b66636d3235724a546f6d7741564a557258656b59464a6e567762672f4772796666696e646f722e6a736f6e697066733a2f2f516d586a613251424b734e5739716e77396b4b66636d3235724a546f6d7741564a557258656b59464a6e567762672f536c7974686572696e2e6a736f6e",
  "immutableReferences": {},
  "source": "// SPDX-License-Identifier: MIT\r\npragma solidity ^0.8.8;\r\n\r\nimport \"@openzeppelin/contracts/token/ERC721/extensions/ERC721URIStorage.sol\";\r\nimport \"@openzeppelin/contracts/access/Ownable.sol\";\r\n\r\ncontract HogwartsNFT is ERC721URIStorage, Ownable {\r\n    mapping(uint256 => address) public s_requestIdToSender; // a mapping from requestId to the address that made that request\r\n    mapping(address => uint256) public s_addressToHouse; // new mapping to map address to the house they got\r\n    uint256 private s_tokenCounter;\r\n\r\n    string[] internal houseTokenURIs = [\r\n        \"ipfs://QmXja2QBKsNW9qnw9kKfcm25rJTomwAVJUrXekYFJnVwbg/Gryffindor.json\",\r\n        \"ipfs://QmXja2QBKsNW9qnw9kKfcm25rJTomwAVJUrXekYFJnVwbg/Hufflepuff.json\",\r\n        \"ipfs://QmXja2QBKsNW9qnw9kKfcm25rJTomwAVJUrXekYFJnVwbg/Ravenclaw.json\",\r\n        \"ipfs://QmXja2QBKsNW9qnw9kKfcm25rJTomwAVJUrXekYFJnVwbg/Slytherin.json\"\r\n    ]; // [Gryffindor, Hufflepuff, Ravenclaw, Slytherin]\r\n\r\n    event NftMinted(uint256 house, address minter);\r\n\r\n    constructor() ERC721(\"Hogwarts NFT\", \"HP\") {\r\n        s_tokenCounter = 0;\r\n    }\r\n\r\n    // Read-only function to check whether a user has minted an NFT\r\n    function hasMintedNFT(address _user) public view returns (bool) {\r\n        return s_addressToHouse[_user] > 0;\r\n    }\r\n\r\n    // Read-only function to get the house index mapped to the user\r\n    function getHouseIndex(address _user) public view returns (uint256) {\r\n        return s_addressToHouse[_user];\r\n    }\r\n\r\n    function mintNFT(address recipient, uint256 house) external onlyOwner {\r\n        uint256 tokenId = s_tokenCounter;\r\n        _safeMint(recipient, tokenId);\r\n        _setTokenURI(tokenId, houseTokenURIs[house]);\r\n\r\n        s_addressToHouse[recipient] = house;\r\n        s_tokenCounter += 1;\r\n\r\n        emit NftMinted(house, recipient);\r\n    }\r\n}\r\n",
  "sourcePath": "C:\\Users\\aswin\\hogwarts-dapp\\contracts\\HogwartsNFT.sol",
  "compiler": {
    "name": "solc",
    "version": "0.8.8+commit.dddeac2f.Emscripten.clang"
  },
  "schemaVersion": "3.4.13",
  "updatedAt": "2023-09-06T17:25:06.950Z",
  "networkType": "ethereum",
  "devdoc": {
    "kind": "dev",
    "methods": {
      "approve(address,uint256)": {
        "details": "See {IERC721-approve}."
      },
      "balanceOf(address)": {
        "details": "See {IERC721-balanceOf}."
      },
      "getApproved(uint256)": {
        "details": "See {IERC721-getApproved}."
      },
      "isApprovedForAll(address,address)": {
        "details": "See {IERC721-isApprovedForAll}."
      },
      "name()": {
        "details": "See {IERC721Metadata-name}."
      },
      "owner()": {
        "details": "Returns the address of the current owner."
      },
      "ownerOf(uint256)": {
        "details": "See {IERC721-ownerOf}."
      },
      "renounceOwnership()": {
        "details": "Leaves the contract without owner. It will not be possible to call `onlyOwner` functions. Can only be called by the current owner. NOTE: Renouncing ownership will leave the contract without an owner, thereby disabling any functionality that is only available to the owner."
      },
      "safeTransferFrom(address,address,uint256)": {
        "details": "See {IERC721-safeTransferFrom}."
      },
      "safeTransferFrom(address,address,uint256,bytes)": {
        "details": "See {IERC721-safeTransferFrom}."
      },
      "setApprovalForAll(address,bool)": {
        "details": "See {IERC721-setApprovalForAll}."
      },
      "supportsInterface(bytes4)": {
        "details": "See {IERC165-supportsInterface}"
      },
      "symbol()": {
        "details": "See {IERC721Metadata-symbol}."
      },
      "tokenURI(uint256)": {
        "details": "See {IERC721Metadata-tokenURI}."
      },
      "transferFrom(address,address,uint256)": {
        "details": "See {IERC721-transferFrom}."
      },
      "transferOwnership(address)": {
        "details": "Transfers ownership of the contract to a new account (`newOwner`). Can only be called by the current owner."
      }
    },
    "version": 1
  },
  "userdoc": {
    "kind": "user",
    "methods": {},
    "version": 1
  }
}