{
  "contractName": "RandomHouseAssignment",
  "abi": [
    {
      "inputs": [
        {
          "internalType": "address",
          "name": "_nftContract",
          "type": "address"
        },
        {
          "internalType": "address",
          "name": "vrfCoordinatorV2Address",
          "type": "address"
        },
        {
          "internalType": "uint64",
          "name": "subId",
          "type": "uint64"
        },
        {
          "internalType": "bytes32",
          "name": "keyHash",
          "type": "bytes32"
        },
        {
          "internalType": "uint32",
          "name": "callbackGasLimit",
          "type": "uint32"
        }
      ],
      "stateMutability": "nonpayable",
      "type": "constructor"
    },
    {
      "inputs": [
        {
          "internalType": "address",
          "name": "have",
          "type": "address"
        },
        {
          "internalType": "address",
          "name": "want",
          "type": "address"
        }
      ],
      "name": "OnlyCoordinatorCanFulfill",
      "type": "error"
    },
    {
      "anonymous": false,
      "inputs": [
        {
          "indexed": true,
          "internalType": "uint256",
          "name": "requestId",
          "type": "uint256"
        },
        {
          "indexed": false,
          "internalType": "address",
          "name": "requester",
          "type": "address"
        }
      ],
      "name": "NftRequested",
      "type": "event"
    },
    {
      "inputs": [],
      "name": "nftContract",
      "outputs": [
        {
          "internalType": "contract HogwartsNFT",
          "name": "",
          "type": "address"
        }
      ],
      "stateMutability": "view",
      "type": "function",
      "constant": true
    },
    {
      "inputs": [
        {
          "internalType": "uint256",
          "name": "requestId",
          "type": "uint256"
        },
        {
          "internalType": "uint256[]",
          "name": "randomWords",
          "type": "uint256[]"
        }
      ],
      "name": "rawFulfillRandomWords",
      "outputs": [],
      "stateMutability": "nonpayable",
      "type": "function"
    },
    {
      "inputs": [],
      "name": "requestNFT",
      "outputs": [],
      "stateMutability": "nonpayable",
      "type": "function"
    }
  ],
  "bytecode": "0x60a06040523480156200001157600080fd5b5060405162000c6938038062000c69833981810160405281019062000037919062000278565b838073ffffffffffffffffffffffffffffffffffffffff1660808173ffffffffffffffffffffffffffffffffffffffff1660601b8152505050846000806101000a81548173ffffffffffffffffffffffffffffffffffffffff021916908373ffffffffffffffffffffffffffffffffffffffff16021790555083600160006101000a81548173ffffffffffffffffffffffffffffffffffffffff021916908373ffffffffffffffffffffffffffffffffffffffff16021790555082600160146101000a81548167ffffffffffffffff021916908367ffffffffffffffff1602179055508160028190555080600360006101000a81548163ffffffff021916908363ffffffff160217905550505050505062000300565b600080fd5b600073ffffffffffffffffffffffffffffffffffffffff82169050919050565b60006200017f8262000152565b9050919050565b620001918162000172565b81146200019d57600080fd5b50565b600081519050620001b18162000186565b92915050565b600067ffffffffffffffff82169050919050565b620001d681620001b7565b8114620001e257600080fd5b50565b600081519050620001f681620001cb565b92915050565b6000819050919050565b6200021181620001fc565b81146200021d57600080fd5b50565b600081519050620002318162000206565b92915050565b600063ffffffff82169050919050565b620002528162000237565b81146200025e57600080fd5b50565b600081519050620002728162000247565b92915050565b600080600080600060a086880312156200029757620002966200014d565b5b6000620002a788828901620001a0565b9550506020620002ba88828901620001a0565b9450506040620002cd88828901620001e5565b9350506060620002e08882890162000220565b9250506080620002f38882890162000261565b9150509295509295909350565b60805160601c6109456200032460003960008181608c015260e001526109456000f3fe608060405234801561001057600080fd5b50600436106100415760003560e01c80631fe543e3146100465780637abd25d114610062578063d56d229d1461006c575b600080fd5b610060600480360381019061005b9190610579565b61008a565b005b61006a61014a565b005b6100746102bb565b6040516100819190610654565b60405180910390f35b7f000000000000000000000000000000000000000000000000000000000000000073ffffffffffffffffffffffffffffffffffffffff163373ffffffffffffffffffffffffffffffffffffffff161461013c57337f00000000000000000000000000000000000000000000000000000000000000006040517f1cf993f4000000000000000000000000000000000000000000000000000000008152600401610133929190610690565b60405180910390fd5b61014682826102df565b5050565b6000600160009054906101000a900473ffffffffffffffffffffffffffffffffffffffff1673ffffffffffffffffffffffffffffffffffffffff16635d3b1d30600254600160149054906101000a900467ffffffffffffffff1660038060009054906101000a900463ffffffff1660016040518663ffffffff1660e01b81526004016101da959493929190610798565b602060405180830381600087803b1580156101f457600080fd5b505af1158015610208573d6000803e3d6000fd5b505050506040513d601f19601f8201168201806040525081019061022c9190610800565b9050336004600083815260200190815260200160002060006101000a81548173ffffffffffffffffffffffffffffffffffffffff021916908373ffffffffffffffffffffffffffffffffffffffff160217905550807ff873236e6cc0ecc5be1a9a35c95ee5b8d1ac4cc7bfef0cc5060391d6cc98e26b336040516102b0919061082d565b60405180910390a250565b60008054906101000a900473ffffffffffffffffffffffffffffffffffffffff1681565b60006004600084815260200190815260200160002060009054906101000a900473ffffffffffffffffffffffffffffffffffffffff169050600060048360008151811061032f5761032e610848565b5b602002602001015161034191906108a6565b905060008054906101000a900473ffffffffffffffffffffffffffffffffffffffff1673ffffffffffffffffffffffffffffffffffffffff16633c168eab83836040518363ffffffff1660e01b815260040161039e9291906108e6565b600060405180830381600087803b1580156103b857600080fd5b505af11580156103cc573d6000803e3d6000fd5b5050505050505050565b6000604051905090565b600080fd5b600080fd5b6000819050919050565b6103fd816103ea565b811461040857600080fd5b50565b60008135905061041a816103f4565b92915050565b600080fd5b6000601f19601f8301169050919050565b7f4e487b7100000000000000000000000000000000000000000000000000000000600052604160045260246000fd5b61046e82610425565b810181811067ffffffffffffffff8211171561048d5761048c610436565b5b80604052505050565b60006104a06103d6565b90506104ac8282610465565b919050565b600067ffffffffffffffff8211156104cc576104cb610436565b5b602082029050602081019050919050565b600080fd5b60006104f56104f0846104b1565b610496565b90508083825260208201905060208402830185811115610518576105176104dd565b5b835b81811015610541578061052d888261040b565b84526020840193505060208101905061051a565b5050509392505050565b600082601f8301126105605761055f610420565b5b81356105708482602086016104e2565b91505092915050565b600080604083850312156105905761058f6103e0565b5b600061059e8582860161040b565b925050602083013567ffffffffffffffff8111156105bf576105be6103e5565b5b6105cb8582860161054b565b9150509250929050565b600073ffffffffffffffffffffffffffffffffffffffff82169050919050565b6000819050919050565b600061061a610615610610846105d5565b6105f5565b6105d5565b9050919050565b600061062c826105ff565b9050919050565b600061063e82610621565b9050919050565b61064e81610633565b82525050565b60006020820190506106696000830184610645565b92915050565b600061067a826105d5565b9050919050565b61068a8161066f565b82525050565b60006040820190506106a56000830185610681565b6106b26020830184610681565b9392505050565b6000819050919050565b6106cc816106b9565b82525050565b600067ffffffffffffffff82169050919050565b6106ef816106d2565b82525050565b6000819050919050565b600061ffff82169050919050565b600061072861072361071e846106f5565b6105f5565b6106ff565b9050919050565b6107388161070d565b82525050565b600063ffffffff82169050919050565b6107578161073e565b82525050565b6000819050919050565b600061078261077d6107788461075d565b6105f5565b61073e565b9050919050565b61079281610767565b82525050565b600060a0820190506107ad60008301886106c3565b6107ba60208301876106e6565b6107c7604083018661072f565b6107d4606083018561074e565b6107e16080830184610789565b9695505050505050565b6000815190506107fa816103f4565b92915050565b600060208284031215610816576108156103e0565b5b6000610824848285016107eb565b91505092915050565b60006020820190506108426000830184610681565b92915050565b7f4e487b7100000000000000000000000000000000000000000000000000000000600052603260045260246000fd5b7f4e487b7100000000000000000000000000000000000000000000000000000000600052601260045260246000fd5b60006108b1826103ea565b91506108bc836103ea565b9250826108cc576108cb610877565b5b828206905092915050565b6108e0816103ea565b82525050565b60006040820190506108fb6000830185610681565b61090860208301846108d7565b939250505056fea26469706673582212200ff428c20d013b534df8958bdd19710a44f84a2eeb188c3182bdbbc856a018d464736f6c63430008080033",
  "immutableReferences": {
    "10": [
      {
        "length": 32,
        "start": 140
      },
      {
        "length": 32,
        "start": 224
      }
    ]
  },
  "source": "// SPDX-License-Identifier: MIT\r\npragma solidity ^0.8.8;\r\n\r\nimport \"./HogwartsNFT.sol\";\r\nimport \"@chainlink/contracts/src/v0.8/interfaces/VRFCoordinatorV2Interface.sol\";\r\nimport \"@chainlink/contracts/src/v0.8/VRFConsumerBaseV2.sol\";\r\n\r\ncontract RandomHouseAssignment is VRFConsumerBaseV2 {\r\n    HogwartsNFT public nftContract;\r\n    VRFCoordinatorV2Interface private i_vrfCoordinator;\r\n    uint64 private i_subscriptionId; // get subscription ID from vrf.chain.link\r\n    bytes32 private i_keyHash;\r\n    uint32 private i_callbackGasLimit;\r\n    mapping(uint256 => address) private s_requestIdToSender;\r\n\r\n    event NftRequested(uint256 indexed requestId, address requester);\r\n\r\n    constructor(\r\n        address _nftContract,\r\n        address vrfCoordinatorV2Address,\r\n        uint64 subId,\r\n        bytes32 keyHash,\r\n        uint32 callbackGasLimit\r\n    )\r\n        VRFConsumerBaseV2(vrfCoordinatorV2Address)\r\n    {\r\n        nftContract = HogwartsNFT(_nftContract);\r\n        i_vrfCoordinator = VRFCoordinatorV2Interface(vrfCoordinatorV2Address);\r\n        i_subscriptionId = subId;\r\n        i_keyHash = keyHash;\r\n        i_callbackGasLimit = callbackGasLimit;\r\n    }\r\n\r\n    function requestNFT() public {\r\n        uint256 requestId = i_vrfCoordinator.requestRandomWords(\r\n            i_keyHash, \r\n            i_subscriptionId,\r\n            3,\r\n            i_callbackGasLimit,\r\n            1\r\n        );\r\n\r\n        s_requestIdToSender[requestId] = msg.sender;\r\n        emit NftRequested(requestId, msg.sender);\r\n    }\r\n\r\n    function fulfillRandomWords(uint256 requestId, uint256[] memory randomWords) internal override {\r\n        address nftOwner = s_requestIdToSender[requestId];\r\n        uint256 house = randomWords[0] % 4;\r\n        nftContract.mintNFT(nftOwner, house);\r\n    }\r\n}\r\n",
  "sourcePath": "C:\\Users\\aswin\\hogwarts-dapp\\contracts\\RandomHouseAssignment.sol",
  "compiler": {
    "name": "solc",
    "version": "0.8.8+commit.dddeac2f.Emscripten.clang"
  },
  "schemaVersion": "3.4.13",
  "updatedAt": "2023-09-07T07:27:48.795Z",
  "networkType": "ethereum",
  "devdoc": {
    "kind": "dev",
    "methods": {},
    "version": 1
  },
  "userdoc": {
    "kind": "user",
    "methods": {},
    "version": 1
  }
}